:100000000C942A000C943F000C943F000C943F0089
:100010000C943F000C943F000C943F000C943F0064
:100020000C943F000C943F000C943F000C943F0054
:100030000C943F000C943F000C943F000C943F0044
:100040000C943F000C943F000C943F000C943F0034
:100050000C943F0011241FBECFE5D8E0DEBFCDBF1A
:1000600010E0A0E6B0E0E6E7FAE002C005900D92ED
:10007000A636B107D9F70E9443030C9439050C94B6
:10008000000087B18F7787B987B1806487B987B15E
:10009000806287B986B1887F86B986B1876086B964
:1000A00086B1877F86B986B1806886B90895883021
:1000B000E8F461157105E1F097B1907E97B997B1B9
:1000C000892B87B986B1806486B9349BFECF86B10F
:1000D000806186B984B185B190E0880F991F880F3F
:1000E000991FFB019183808381E0089580E008954A
:1000F00080E008954130A1F5813089F028F0823008
:10010000C9F0833011F108952AB381E090E002C074
:10011000880F991F6A95E2F7822B8ABB089527B34F
:1001200081E090E002C0880F991F6A95E2F7822B68
:1001300087BB089524B381E090E002C0880F991F27
:100140006A95E2F7822B84BB089521B381E090E0A9
:1001500002C0880F991F6A95E2F7822B81BB089530
:10016000411137C0813091F028F08230D9F08330CE
:1001700029F108952AB381E090E002C0880F991F09
:100180006A95E2F7809582238ABB089527B381E0C0
:1001900090E002C0880F991F6A95E2F7809582234C
:1001A00087BB089524B381E090E002C0880F991FB7
:1001B0006A95E2F78095822384BB089521B381E09C
:1001C00090E002C0880F991F6A95E2F7809582231C
:1001D00081BB08954130A1F5813089F028F082304B
:1001E000C9F0833011F108952BB381E090E002C093
:1001F000880F991F6A95E2F7822B8BBB089528B36D
:1002000081E090E002C0880F991F6A95E2F7822B87
:1002100088BB089525B381E090E002C0880F991F44
:100220006A95E2F7822B85BB089522B381E090E0C6
:1002300002C0880F991F6A95E2F7822B82BB08954E
:10024000411137C0813091F028F08230D9F08330ED
:1002500029F108952BB381E090E002C0880F991F27
:100260006A95E2F7809582238BBB089528B381E0DD
:1002700090E002C0880F991F6A95E2F7809582236B
:1002800088BB089525B381E090E002C0880F991FD4
:100290006A95E2F78095822385BB089522B381E0B9
:1002A00090E002C0880F991F6A95E2F7809582233B
:1002B00082BB0895813041F028F0823039F08330DC
:1002C00039F008956ABB089567BB089564BB08952B
:1002D00061BB0895813041F028F0823039F08330DD
:1002E00039F008956BBB089568BB089565BB089508
:1002F00062BB089541E063E081E00E94EA008FEC78
:1003000097E00197F1F700C0000040E063E081E072
:100310000E94EA008FEC97E00197F1F700C000001F
:100320000895682F80E00E946A0141E061E081E069
:100330000E94EA0040E062E081E00E94EA000E9440
:100340007A0108950F931F93CF938C01C0E003C0EF
:100350000E949101CF5FF801EC0FF11D80818111A6
:10036000F7CFCF911F910F9108952F923F924F9207
:100370005F926F927F928F929F92AF92BF92CF9235
:10038000DF92EF92FF920F931F93CF93DF93CDB73E
:10039000DEB728970FB6F894DEBF0FBECDBF298316
:1003A0003A834B835C836D837E83382E292EA0E0B5
:1003B0000E942D0509F081C080E30E949101CBC00D
:1003C0002F813885492D582D672D762D852D942D1B
:1003D00001E00E940B05822E932E48875F83B62F83
:1003E000A72FF82FE92F02E00E940B05A22EB32EB3
:1003F000C42ED52EE62EF72E082F192F282D392D95
:1004000048855F816B2F7A2F8F2F9E2F0E942405A6
:1004100028873F83942E852E762E672E582E492EC0
:100420000F2EFAE0AF2EF02DB12CC12CD12CE12CE7
:10043000F12C00E010E029813A814B815C816D81D3
:100440007E81832D922D0E94AC04A22EB32EC42E49
:10045000D52EE62EF72E082F192F28853F81492DFE
:10046000582D672D762D852D942D0E9424052F83E0
:100470003887942E852E762E672E582E492E0F2ED5
:10048000FAE0AF2EF02DB12CC12CD12CE12CF12CA7
:1004900000E010E029813A814B815C816D817E8191
:1004A000832D922D0E94AE0429833A834B835C8373
:1004B0006D837E83382E292E09C081E01886912C09
:1004C000812C712C612C512C412C8F8329813A81F4
:1004D0004B815C816D817E81832D922DA0E00E94F5
:1004E0002D0509F06DCF2BC00F2EFAE0AF2EF02DA9
:1004F000B12CC12CD12CE12CF12C00E010E02F818B
:100500003885492D582D672D762D852D942D0E94E7
:10051000AC0480E3820F0E9491012F813885492D20
:10052000582D672D762D852D942D0E94AE042F8396
:100530003887942E852E762E672E582E492E2F81A1
:100540003885492D582D672D762D852D942DA1E0C8
:100550000E942D0549F628960FB6F894DEBF0FBE0F
:10056000CDBFDF91CF911F910F91FF90EF90DF9062
:10057000CF90BF90AF909F908F907F906F905F9043
:100580004F903F902F900895682F80E00E946A015D
:1005900040E061E081E00E94EA0040E062E081E04A
:1005A0000E94EA000E947A0108959FEF980F92300E
:1005B00070F4613170F4662371F0813019F42FE723
:1005C000260F0AC0823041F42FEB260F05C020E829
:1005D00003C020E801C020E8822F0E94C4028FECF3
:1005E00097E00197F1F700C00000089581E00E94B4
:1005F000C4028FE19EE40197F1F700C00000089566
:100600002FE788E391E0215080409040E1F700C05F
:10061000000061E080E00E945A0141E061E081E079
:100620000E947A0041E062E081E00E947A0041E0AD
:1006300063E081E00E947A0082E00E94C4028FECB5
:1006400097E00197F1F700C0000088E30E94C40220
:100650008FEC97E00197F1F700C000008CE00E945A
:10066000C4028FEC97E00197F1F700C000000E94F0
:10067000F60286E00E94C4028FEC97E00197F1F742
:1006800000C000000895CF93DF9300D0CDB7DEB750
:100690000E9441000E940003BE016F5F7F4F84E013
:1006A0000E94570069817A8180E090E00E94B10346
:1006B00020E030E44CE955E40E94170420E030E0EB
:1006C00040E85AE30E9417040E9482034B01262F40
:1006D000392D40E050E060E070E080E090E00E9462
:1006E000B50166E081E00E94D50280E690E00E94BC
:1006F000A20187EA91E60197F1F700C000000E948D
:10070000F602CACF0E94F60388F09F5798F0B92FDF
:100710009927B751B0F0E1F0660F771F881F991F36
:100720001AF0BA95C9F714C0B13091F00E941004C4
:10073000B1E008950C941004672F782F8827B85FD4
:1007400039F0B93FCCF3869577956795B395D9F78E
:100750003EF490958095709561957F4F8F4F9F4F98
:100760000895E89409C097FB3EF4909580957095A4
:1007700061957F4F8F4F9F4F9923A9F0F92F96E9ED
:10078000BB279395F695879577956795B795F11162
:10079000F8CFFAF4BB0F11F460FF1BC06F5F7F4FFF
:1007A0008F4F9F4F16C0882311F096E911C0772311
:1007B00021F09EE8872F762F05C0662371F096E81A
:1007C000862F70E060E02AF09A95660F771F881FE9
:1007D000DAF7880F9695879597F9089557FD905801
:1007E000440F551F59F05F3F71F04795880F97FBF5
:1007F000991F61F09F3F79F08795089512161306AF
:100800001406551FF2CF4695F1DF08C016161706DD
:100810001806991FF1CF8695710561050894089512
:10082000E894BB2766277727CB0197F908950E94A4
:100830002A040C949B040E948D0438F00E949404B6
:1008400020F0952311F00C9484040C948A04112454
:100850000C9411040E94EE0370F3959FC1F3950F61
:1008600050E0551F629FF001729FBB27F00DB11D34
:10087000639FAA27F00DB11DAA1F649F6627B00DC4
:10088000A11D661F829F2227B00DA11D621F739FAD
:10089000B00DA11D621F839FA00D611D221F749FBB
:1008A0003327A00D611D231F849F600D211D822F02
:1008B000762F6A2F11249F5750409AF0F1F0882329
:1008C0004AF0EE0FFF1FBB1F661F771F881F915056
:1008D0005040A9F79E3F510580F00C9484040C947D
:1008E00011045F3FE4F3983ED4F3869577956795BE
:1008F000B795F795E7959F5FC1F7FE2B880F911D80
:100900009695879597F9089597F99F6780E870E025
:1009100060E008959FEF80EC089500240A94161675
:10092000170618060906089500240A9412161306DD
:10093000140605060895092E0394000C11F488236B
:1009400052F0BB0F40F4BF2B11F460FF04C06F5F87
:100950007F4F8F4F9F4F0895689401C0E8948F9206
:100960009F92CF93DF930E94BA04DF91CF919F9023
:100970008F90089588249924F401E401B0E49F93B2
:10098000AA279A158B049C04ED05FE05CF05D00718
:10099000A10798F4AD2FDC2FCF2FFE2FE92D982C37
:1009A000892E982F872F762F652F542F432F322F84
:1009B0002227B85031F7BF9127C01B2EBF91BB270C
:1009C000220F331F441F551F661F771F881F991F53
:1009D000881C991CEE1FFF1FCC1FDD1FAA1FBB1F09
:1009E0008A149B04EC05FD05CE05DF05A007B107C1
:1009F00048F08A189B08EC09FD09CE09DF09A00B15
:100A0000B10B21601A94E1F62EF49401AF01BE01FE
:100A1000CD01000C08950F93083090F0982F872F88
:100A2000762F652F542F432F322F22270850F4CFD3
:100A3000220F331F441F551F661F771F881F991FE2
:100A40000A95B2F70F9108952A0D3B1D4C1D5D1DAF
:100A50006E1D7F1D801F911F08950024A7FD009427
:100A60002A17300540055005600570058005900582
:060A70000895F894FFCF89
:060A7600286D7629000046
:00000001FF
